:100000000C942A000C9447000C9447000C94470071
:100010000C9447000C9447000C9447000C94470044
:100020000C9447000C942D100C9447000C9447003E
:100030000C9447000C9498110C9447000C944700C2
:100040000C9476000C9447000C9447000C94E40642
:100050000C94470011241FBECFE5D8E0DEBFCDBF12
:1000600011E0A0E6B0E0E0E1F6E302C005900D92F9
:10007000AE38B107D9F712E0AEE8B1E001C01D9289
:10008000A93FB107E1F70E94AE080C94061B0C943F
:100090000000DF93CF93CDB7DEB7E6E2F0E08FEE5E
:1000A0008083A0E5B0E0E0E5F0E080818F708C9384
:1000B000E7E2F0E0108210928F0110928E01109210
:1000C000910110929001109292011092930110925E
:1000D000940110929501109296011092970110923E
:1000E000980110929901CF91DF9108951F920F927C
:1000F0000FB60F921124EF92FF920F931F932F933D
:100100003F934F935F938F939F93AF93BF93EF93DF
:10011000FF93DF93CF9300D0CDB7DEB7E4E2F0E0FA
:100120008081882F90E09A838983E5E2F0E08081E6
:10013000882F90E0382F222789819A81822B932B58
:100140009A838983E7E2F0E08081882309F05DC02B
:10015000A7E2B0E0E7E2F0E0808181608C93E9E320
:10016000F0E08081882F90E088709070009729F5EA
:1001700089819A819C01442737FD4095542F8091B5
:10018000960190919701A0919801B0919901820FE9
:10019000931FA41FB51F8093960190939701A0937E
:1001A0009801B093990180919001909191010196ED
:1001B000909391018093900184C020919601309199
:1001C0009701409198015091990189819A81AA27BC
:1001D00097FDA095BA2F79018A01E81AF90A0A0B4E
:1001E0001B0BD801C7018093960190939701A093B0
:1001F0009801B0939901809190019091910101969D
:1002000090939101809390015CC0A7E2B0E0E7E297
:10021000F0E080818E7F8C93E9E3F0E08081882F8D
:1002200090E084709070009729F589819A819C01F3
:10023000442737FD4095542F80919201909193016E
:10024000A0919401B0919501820F931FA41FB51F37
:100250008093920190939301A0939401B0939501A0
:1002600080918E0190918F01019690938F018093E0
:100270008E0127C020919201309193014091940109
:100280005091950189819A81AA2797FDA095BA2F4F
:1002900079018A01E81AF90A0A0B1B0BD801C70178
:1002A0008093920190939301A0939401B093950150
:1002B00080918E0190918F01019690938F01809390
:1002C0008E010F900F90CF91DF91FF91EF91BF9131
:1002D000AF919F918F915F914F913F912F911F917E
:1002E0000F91FF90EF900F900FBE0F901F901895F9
:1002F000DF93CF93CDB7DEB72C970FB6F894DEBF60
:100300000FBECDBFF89480918E0190918F019C8794
:100310008B8780919001909191019A878987809134
:10032000920190919301A0919401B09195018D83D8
:100330009E83AF83B8878091960190919701A09199
:100340009801B091990189839A83AB83BC83109201
:100350008F0110928E0110929101109290011092D3
:1003600092011092930110929401109295011092B3
:100370009601109297011092980110929901789429
:100380008B859C859C01442737FD4095542F8D819A
:100390009E81AF81B885BC01CD010E947E1ADA0131
:1003A000C9018093F1029093F202A093F302B093FB
:1003B000F40289859A859C01442737FD4095542F86
:1003C00089819A81AB81BC81BC01CD010E947E1ADA
:1003D000DA01C9018093ED029093EE02A093EF023F
:1003E000B093F0022C960FB6F894DEBF0FBECDBFCF
:1003F000CF91DF910895DF93CF93CDB7DEB7F89417
:1004000010928F0110928E01109291011092900122
:100410001092920110929301109294011092950102
:1004200010929601109297011092980110929901E2
:100430007894CF91DF910895DF93CF9300D0CDB71B
:10044000DEB7898304C00E9442108823E1F38981CA
:100450008A838A81882311F081E08A838A81998145
:1004600091509983882379F70F900F90CF91DF9166
:100470000895EF92FF920F931F93DF93CF93CDB721
:10048000DEB7A2E3B0E0E2E3F0E08081837384644E
:100490008C93ABE3B0E0EBE3F0E0808180618C9380
:1004A00082E30E941C020E94FB0181E00E941C0268
:1004B0000E9478018091F1029091F202A091F302E2
:1004C000B091F40290939B0180939A018091ED0288
:1004D0009091EE02A091EF02B091F0029093A301EF
:1004E0008093A201A2E3B0E0E2E3F0E080818373B5
:1004F00088688C93ABE3B0E0EBE3F0E0808180614F
:100500008C9382E30E941C020E94FB0181E00E9406
:100510001C020E9478018091F1029091F202A09158
:10052000F302B091F40290939F0180939E01809119
:10053000ED029091EE02A091EF02B091F002909343
:10054000A7018093A601A2E3B0E0E2E3F0E080819E
:10055000837384648C93ABE3B0E0EBE3F0E08081E1
:100560008F7E8C9382E30E941C020E94FB0181E03B
:100570000E941C020E9478018091F1029091F20287
:10058000A091F302B091F40290939D0180939C019D
:100590008091ED029091EE02A091EF02B091F002F5
:1005A0009093A5018093A401A2E3B0E0E2E3F0E020
:1005B0008081837388688C93ABE3B0E0EBE3F0E079
:1005C00080818F7E8C9382E30E941C020E94FB013B
:1005D00081E00E941C020E9478018091F1029091BA
:1005E000F202A091F302B091F4029093A1018093E2
:1005F000A0018091ED029091EE02A091EF02B091E6
:10060000F0029093A9018093A80180919A019091A2
:100610009B01AA2797FDA095BA2FBC01CD010E948E
:100620004B177B018C0180919C0190919D01AA2721
:1006300097FDA095BA2FBC01CD010E944B179B01DD
:10064000AC01C801B7010E948714DC01CB019C01F9
:10065000AD0160E070E080E89FE30E94DF15DC01FF
:10066000CB018093AE019093AF01A093B001B09302
:10067000B10180919E0190919F01AA2797FDA095BD
:10068000BA2FBC01CD010E944B177B018C018091D8
:10069000A0019091A101AA2797FDA095BA2FBC01B6
:1006A000CD010E944B179B01AC01C801B7010E940C
:1006B0008714DC01CB019C01AD0160E070E080E8B3
:1006C0009FE30E94DF15DC01CB018093AA01909388
:1006D000AB01A093AC01B093AD018091A2019091C8
:1006E000A301AA2797FDA095BA2FBC01CD010E94B6
:1006F0004B177B018C018091A4019091A501AA2741
:1007000097FDA095BA2FBC01CD010E944B179B010C
:10071000AC01C801B7010E948714DC01CB019C0128
:10072000AD0160E070E080E89FE30E94DF15DC012E
:10073000CB018093B6019093B701A093B801B09319
:10074000B9018091A6019091A701AA2797FDA095D4
:10075000BA2FBC01CD010E944B177B018C01809107
:10076000A8019091A901AA2797FDA095BA2FBC01D5
:10077000CD010E944B179B01AC01C801B7010E943B
:100780008714DC01CB019C01AD0160E070E080E8E2
:100790009FE30E94DF15DC01CB018093B2019093AF
:1007A000B301A093B401B093B501CF91DF911F9134
:1007B0000F91FF90EF900895EF92FF920F931F9388
:1007C000DF93CF93CDB7DEB728970FB6F894DEBF8F
:1007D0000FBECDBF6D837E838F83988780E090E0CE
:1007E000A0E0B0E089839A83AB83BC838D819E8136
:1007F000AF81B885181619061A061B060CF059C0E9
:100800006D817E818F8198850E944B177B018C01C1
:1008100080919C0190919D01AA2797FDA095BA2FE8
:10082000BC01CD010E944B179B01AC01C801B7016F
:100830000E948714DC01CB012091AE013091AF0101
:100840004091B0015091B101BC01CD010E94E5146D
:10085000DC01CB0189839A83AB83BC8369817A8174
:100860008B819C8120E030E040E85FE30E948B16A2
:1008700018164CF480E090E0A0E8BFE389839A83E7
:10088000AB83BC836DC069817A818B819C8120E0C0
:1008900030E040E050E00E94EB1688230CF060C08E
:1008A00080E090E0A0E0B0E089839A83AB83BC83D2
:1008B00057C08091A0019091A101AA2797FDA09512
:1008C000BA2FBC01CD010E944B177B018C016D81B9
:1008D0007E818F8198850E944B179B01AC01C801D6
:1008E000B7010E948714DC01CB012091AA0130914D
:1008F000AB014091AC015091AD01BC01CD010E9412
:10090000E514DC01CB0189839A83AB83BC836981C5
:100910007A818B819C8120E030E040E85FEB0E948F
:10092000EB1688234CF480E090E0A0E8BFEB8983CD
:100930009A83AB83BC8314C069817A818B819C814B
:1009400020E030E040E050E00E948B16181644F49E
:1009500080E090E0A0E0B0E089839A83AB83BC8321
:1009600089819A81AB81BC81BC01CD0128960FB6EB
:10097000F894DEBF0FBECDBFCF91DF911F910F91D5
:10098000FF90EF900895EF92FF920F931F93DF93E4
:10099000CF93CDB7DEB728970FB6F894DEBF0FBE62
:1009A000CDBF6D837E838F83988780E090E0A0E049
:1009B000B0E089839A83AB83BC838D819E81AF81B4
:1009C000B885181619061A061B060CF059C06D8159
:1009D0007E818F8198850E944B177B018C018091CD
:1009E000A4019091A501AA2797FDA095BA2FBC015B
:1009F000CD010E944B179B01AC01C801B7010E94B9
:100A00008714DC01CB012091B6013091B7014091F0
:100A1000B8015091B901BC01CD010E94E514DC017F
:100A2000CB0189839A83AB83BC8369817A818B8173
:100A30009C8120E030E040E85FE30E948B161816AE
:100A40004CF480E090E0A0E8BFE389839A83AB8315
:100A5000BC836DC069817A818B819C8120E030E00C
:100A600040E050E00E94EB1688230CF060C080E06C
:100A700090E0A0E0B0E089839A83AB83BC8357C049
:100A80008091A8019091A901AA2797FDA095BA2F5E
:100A9000BC01CD010E944B177B018C016D817E81D1
:100AA0008F8198850E944B179B01AC01C801B7014B
:100AB0000E948714DC01CB012091B2013091B30177
:100AC0004091B4015091B501BC01CD010E94E514E3
:100AD000DC01CB0189839A83AB83BC8369817A81F2
:100AE0008B819C8120E030E040E85FEB0E94EB16B8
:100AF00088234CF480E090E0A0E8BFEB89839A83E0
:100B0000AB83BC8314C069817A818B819C8120E096
:100B100030E040E050E00E948B16181644F480E06C
:100B200090E0A0E0B0E089839A83AB83BC838981A5
:100B30009A81AB81BC81BC01CD0128960FB6F89497
:100B4000DEBF0FBECDBFCF91DF911F910F91FF9000
:100B5000EF900895DF93CF93CDB7DEB7E0E2F0E0FA
:100B600086EC8083A6E5B0E0E6E5F0E080818A705F
:100B700085608C93A1E2B0E0E1E2F0E080818C7FBF
:100B800081608C93CF91DF910895DF93CF9300D054
:100B900000D0CDB7DEB769837A838B839C83809145
:100BA000C0028F5F8093C0028091C0028F718093DA
:100BB000C0028091C002882F90E0880F991F880F93
:100BC000991FFC01E054FE4F89819A81AB81BC8161
:100BD00080839183A283B3830F900F900F900F9027
:100BE000CF91DF910895DF93CF93CDB7DEB780919A
:100BF000C1028F5F8093C1028091C1028F71809387
:100C0000C1028091C102882F90E0880F991F880F40
:100C1000991FFC01E054FE4F80819181A281B38134
:100C2000BC01CD01CF91DF910895DF93CF9300D028
:100C300000D0CDB7DEB769837A838B839C838091A4
:100C4000C2028F5F8093C2028091C2028F71809333
:100C5000C2028091C202882F90E0880F991F880FEE
:100C6000991FFC01E05CFD4F89819A81AB81BC81B9
:100C700080839183A283B3830F900F900F900F9086
:100C8000CF91DF910895DF93CF93CDB7DEB78091F9
:100C9000C3028F5F8093C3028091C3028F718093E0
:100CA000C3028091C302882F90E0880F991F880F9C
:100CB000991FFC01E05CFD4F80819181A281B3818D
:100CC000BC01CD01CF91DF910895DF93CF93CDB7D4
:100CD000DEB729970FB6F894DEBF0FBECDBF8E8367
:100CE0006F83488729878E818A838F818B8388854C
:100CF0008D8389858C83F8948091C002882F90E041
:100D0000019620E230E0B9010E946B1A9C018091AB
:100D1000C102882F90E02817390731F19091C10264
:100D20008091C0021982981711F481E089838A8129
:100D30009B81AC81BD81BC01CD010E94C50589812B
:100D4000882391F01092BF011092BE01A6E5B0E099
:100D5000E6E5F0E080818F7E8C93A6E5B0E0E6E5E5
:100D6000F0E08081806A8C93789429960FB6F8948D
:100D7000DEBF0FBECDBFCF91DF910895DF93CF933C
:100D800000D000D0CDB7DEB7F8949091C302809127
:100D9000C202981719F48FEF898308C00E94430696
:100DA000DC01CB0189839A83AB83BC8378948981EE
:100DB0009A81AB81BC81BC01CD010F900F900F9047
:100DC0000F90CF91DF9108951F920F920FB60F925F
:100DD00011242F933F934F935F936F937F938F9340
:100DE0009F93AF93BF93EF93FF93DF93CF9300D085
:100DF00000D0CDB7DEB7E1E2F0E08081887F8A8362
:100E00008A81282F30E03C832B838B819C81883220
:100E1000910509F4B3C02B813C81293231058CF452
:100E20008B819C818031910559F12B813C81283146
:100E3000310509F47BC08B819C818830910501F1DB
:100E40004FC12B813C812034310509F43BC18B819A
:100E50009C81813491053CF42B813C812033310508
:100E600009F48CC03DC18B819C818035910509F4CA
:100E7000EEC02B813C812835310509F4E8C030C132
:100E80008091BE019091BF0183309105D9F4E3E2D6
:100E9000F0E08091BA0181608083A6E5B0E0E6E5EC
:100EA000F0E080818F7D8C93A6E5B0E0E6E5F0E090
:100EB000808180688C9384E090E09093BF01809360
:100EC000BE0135C10E94F305DC01CB018093BA015C
:100ED0009093BB01A093BC01B093BD018091BC0174
:100EE000882339F081E090E09093BF018093BE01A8
:100EF00006C086E090E09093BF018093BE01E3E2DC
:100F0000F0E08091BA0180838091BA018983A6E5DF
:100F1000B0E0E6E5F0E080818F7D8C93A6E5B0E05F
:100F2000E6E5F0E0808180688C9301C1E3E2F0E0C7
:100F30008091BB0180838091BE019091BF0181307F
:100F4000910539F482E090E09093BF018093BE0157
:100F50000DC08091BE019091BF018630910531F4A2
:100F600087E090E09093BF018093BE01A6E5B0E0DA
:100F7000E6E5F0E0808180688C93D9C08091BE0165
:100F80009091BF0182309105A9F483E090E09093A5
:100F9000BF018093BE01A6E5B0E0E6E5F0E0808108
:100FA00080628C93A6E5B0E0E6E5F0E080818068A1
:100FB0008C93BDC08091BE019091BF018730910597
:100FC000B1F488E090E09093BF018093BE01E3E22A
:100FD000F0E08091BD0180838091BD018983A6E509
:100FE000B0E0E6E5F0E0808180688C93A0C080915D
:100FF000BE019091BF018830910509F098C0909191
:10100000C1028091C002981799F0A6E5B0E0E6E52C
:10101000F0E0808180628C93A6E5B0E0E6E5F0E048
:10102000808180688C931092BF011092BE017FC0B6
:10103000A6E5B0E0E6E5F0E080818F7D8C93A6E543
:10104000B0E0E6E5F0E0808180698C9370C0E3E277
:10105000F0E080818093BD018091BD018983809102
:10106000BA019091BB01A091BC01B091BD01BC013E
:10107000CD010E9415069091C1028091C00298177F
:1010800099F0A6E5B0E0E6E5F0E0808180628C931F
:10109000A6E5B0E0E6E5F0E0808180688C931092F0
:1010A000BF011092BE010EC0A6E5B0E0E6E5F0E09B
:1010B00080818F7D8C93A6E5B0E0E6E5F0E080814D
:1010C00080698C9385E090E09093BF018093BE018E
:1010D000A6E5B0E0E6E5F0E0808180688C9327C06B
:1010E0009091C1028091C002981799F0A6E5B0E0F6
:1010F000E6E5F0E0808180628C93A6E5B0E0E6E56D
:10110000F0E0808180688C931092BF011092BE0144
:101110000EC0A6E5B0E0E6E5F0E080818F7D8C931F
:10112000A6E5B0E0E6E5F0E0808180698C930F9061
:101130000F900F900F90CF91DF91FF91EF91BF91A2
:10114000AF919F918F917F916F915F914F913F915F
:101150002F910F900FBE0F901F9018956F927F9256
:101160008F929F92AF92BF92CF92DF92EF92FF92B7
:101170000F931F93DF93CF93CDB7DEB7CA5ED040F6
:101180000FB6F894DEBF0FBECDBF1A8E198E188E23
:1011900081E089838EEF8B8FEAE3F0E080E180834A
:1011A000E7E3F0E08FEF8083E1E3F0E08FEF80830F
:1011B000EBE3F0E01082E2E3F0E01082E8E3F0E03D
:1011C000108286E060E00E94C81287E061E00E9421
:1011D000C8120E9449000E940B120E947E0F0E94BA
:1011E000F71278940E943902F8940E94AA050E948E
:1011F000AE10789480E690E060E20E94FC11888D49
:101200000E94D510188E0E944210813009F0F9C05A
:101210008A8D8F5F8A8F898D8F5F898F8A8D883CB9
:1012200048F0A8E3B0E0E8E3F0E0908181E08927AE
:101230008C931A8E898D8A3018F081E0888F198EF0
:101240000E9478018091F1029091F202A091F30244
:10125000B091F402BC01CD010E94DC03DC01CB01A2
:101260008C879D87AE87BF878091ED029091EE02BB
:10127000A091EF02B091F002BC01CD010E94C30425
:10128000DC01CB0188879987AA87BB876C857D8520
:101290008E859F8520E030E048EC52E40E94E51402
:1012A000DC01CB01BC01CD010E94A917DC01CB01FF
:1012B0009F838E83688579858A859B8520E030E0D1
:1012C00048EC52E40E94E514DC01CB01BC01CD01E5
:1012D0000E94A917DC01CB019D838C830E942112FF
:1012E0000E947212DC01CB018C8B9D8BAE8BBF8B6D
:1012F0002091F5023091F6024091F7025091F802E8
:101300006C897D898E899F890E948B16181664F4DA
:101310008091F5029091F602A091F702B091F80247
:101320008C8B9D8BAE8BBF8B0E942A120E94331236
:10133000DC01CB01888B998BAA8BBB8B00D0EDB7DE
:10134000FEB731962C893D894E895F89E888F988F6
:101350000A891B89AC84BD84CE84DF846884798447
:101360008A849B84DE01AD51BF4FCE0189519F4FCE
:1013700091838083CA01B901A80197018601750193
:10138000640153014D010E94240A0F900F9089813E
:10139000882381F1FE01ED51FF4F80819181A2816F
:1013A000B381BC01CD0120E030E048EC52E40E9462
:1013B000E514DC01CB01BC01CD010E94A917DC01C1
:1013C000CB019B838A83FE01ED51FF4F8081918188
:1013D000A281B381BC01CD010E949B0FFE01E951A6
:1013E000FF4F80819181A281B381BC01CD010E9418
:1013F000E40F07C0A2E3B0E0E2E3F0E080818C6C90
:101400008C93E9E3F0E08081882F90E08074907005
:10141000009751F481E0898386E060E00E94C81261
:1014200087E061E00E94C812E9E3F0E08081882350
:101430000CF4E0CE198286E061E00E94C81287E0D9
:1014400060E00E94C812D6CE8F929F92AF92BF9258
:10145000CF92DF92EF92FF920F931F93DF93CF9380
:10146000CDB7DEB7C655D0400FB6F894DEBF0FBE7D
:10147000CDBF69837A838B839C832D833E834F8387
:101480005887E986FA860B871C87AD86BE86CF868D
:10149000D88A9A8A898A69857A858B859C8520E095
:1014A00030E040E85FE30E948B1618165CF480E0A1
:1014B00090E0A0E8BFE367968CAF9DAFAEAFBFAF43
:1014C00067972DC069857A858B859C8520E030E003
:1014D00040E85FEB0E94EB1688235CF480E090E02C
:1014E000A0E8BFEB63968CAF9DAFAEAFBFAF639785
:1014F0000AC089859A85AB85BC8563968CAF9DAF04
:10150000AEAFBFAF639763968CAD9DADAEADBFADD3
:10151000639767968CAF9DAFAEAFBFAF6797679687
:101520008CAD9DADAEADBFAD679789879A87AB8710
:10153000BC876D857E858F85988920E030E040E806
:101540005FE30E948B1618165CF480E090E0A0E840
:10155000BFE32F968CAF9DAFAEAFBFAF2F972DC01F
:101560006D857E858F85988920E030E040E85FEBCF
:101570000E94EB1688235CF480E090E0A0E8BFEBCB
:101580002B968CAF9DAFAEAFBFAF2B970AC08D85AA
:101590009E85AF85B8892B968CAF9DAFAEAFBFAFA0
:1015A0002B972B968CAD9DADAEADBFAD2B972F96E7
:1015B0008CAF9DAFAEAFBFAF2F972F968CAD9DADCB
:1015C000AEADBFAD2F978D879E87AF87B88B8091CB
:1015D000D8029091D902A091DA02B091DB028093F7
:1015E000D4029093D502A093D602B093D7026D8512
:1015F0007E858F85988929853A854B855C850E94F3
:101600008714DC01CB01BC01CD012AE132E646E8BA
:1016100050E40E94E514DC01CB018093D802909342
:10162000D902A093DA02B093DB026D857E858F85A7
:10163000988929853A854B855C850E94B814DC0120
:10164000CB01BC01CD0120E030E040E05FE30E942F
:10165000E514DC01CB018093D0029093D102A093DA
:10166000D202B093D3028091D8029091D902A09176
:10167000DA02B091DB022091D4023091D502409180
:10168000D6025091D702BC01CD010E94B814DC01F2
:10169000CB01BC01CD012AE037ED43E25BE30E94C0
:1016A000E514DC01CB012091E0023091E102409190
:1016B000E2025091E302BC01CD010E94B814DC01AA
:1016C000CB018093E0029093E102A093E202B093F9
:1016D000E3028091E0029091E102A091E202B091D8
:1016E000E302BC01CD012BED3FE049EC50E40E9448
:1016F0008B161816CCF48091E0029091E102A09133
:10170000E202B091E302BC01CD012BED3FE049ECD8
:1017100050E40E948714DC01CB0127968CAF9DAF6B
:10172000AEAFBFAF279745C08091E0029091E10234
:10173000A091E202B091E302BC01CD0120E030E0D3
:1017400040E050E00E94EB168823CCF48091E00248
:101750009091E102A091E202B091E302BC01CD01BF
:101760002BED3FE049EC50E40E94B814DC01CB01C2
:1017700023968CAF9DAFAEAFBFAF23970EC08091C5
:10178000E0029091E102A091E202B091E30223967F
:101790008CAF9DAFAEAFBFAF239723968CAD9DAD01
:1017A000AEADBFAD239727968CAF9DAFAEAFBFAFA9
:1017B000279727968CAD9DADAEADBFAD2797809393
:1017C000E0029093E102A093E202B093E3028091E1
:1017D000E0029091E102A091E202B091E302BC012B
:1017E000CD012BED3FE049E450E40E94B814DC0148
:1017F000CB01BC01CD012D813E814F8158850E94D6
:101800001B1718168CF06D817E818F8198852BEDCA
:101810003FE049EC50E40E948714DC01CB018BAF20
:101820009CAFADAFBEAF3DC08091E0029091E102B0
:10183000A091E202B091E302BC01CD012BED3FE0AB
:1018400049E450E40E948714DC01CB01BC01CD01C6
:101850002D813E814F8158850E94BB1688238CF0D4
:101860006D817E818F8198852BED3FE049EC50E4BE
:101870000E94B814DC01CB018FAB98AFA9AFBAAF0F
:1018800008C08D819E81AF81B8858FAB98AFA9AF1D
:10189000BAAF8FA998ADA9ADBAAD8BAF9CAFADAFC4
:1018A000BEAF2091E0023091E1024091E2025091FE
:1018B000E3026BAD7CAD8DAD9EAD0E948714DC0163
:1018C000CB018093DC029093DD02A093DE02B09303
:1018D000DF028091D0029091D102A091D202B0910A
:1018E000D302BC01CD0128EE31EB49E750EC0E9458
:1018F000E514DC01CB017C018D0169817A818B814A
:101900009C8124EF38ED4CE950E40E94E514DC01A1
:10191000CB019C01AD01C801B7010E94B814DC01E4
:10192000CB018093CC029093CD02A093CE02B093D2
:10193000CF028091DC029091DD02A091DE02B09195
:10194000DF02BC01CD0121E237EA44E95FE30E94F6
:10195000E514DC01CB017C018D018091D8029091CE
:10196000D902A091DA02B091DB02BC01CD0128E1DD
:1019700037EA44E15FEB0E94E514DC01CB019C01F6
:10198000AD01C801B7010E94B814DC01CB018093FE
:10199000C8029093C902A093CA02B093CB0280916F
:1019A000C8029091C902A091CA02B091CB02BC01B9
:1019B000CD0120E030E040E050E00E94BB168823DB
:1019C0002CF0A1E0B0E0BEABADAB04C08FEF9FEF59
:1019D0009EAB8DABADA9BEA9B093C702A093C602C2
:1019E0008091CC029091CD02A091CE02B091CF0215
:1019F000BC01CD0120E030E040E050E00E94BB1689
:101A000088232CF081E090E09CAB8BAB04C0AFEF5F
:101A1000BFEFBCABABAB8BA99CA99093C5028093E5
:101A2000C4028091C6029091C702AA2797FDA09593
:101A3000BA2FBC01CD010E944B17DC01CB012091D4
:101A4000C8023091C9024091CA025091CB02BC0138
:101A5000CD010E94E514DC01CB01BC01CD0120E0E9
:101A600030E040E85FE30E948B1618168CF48091FA
:101A7000C6029091C702AA2797FDA095BA2FBC0174
:101A8000CD010E944B176FA778AB89AB9AAB43C0CF
:101A90008091C6029091C702AA2797FDA095BA2F00
:101AA000BC01CD010E944B17DC01CB012091C80283
:101AB0003091C9024091CA025091CB02BC01CD01C4
:101AC0000E94E514DC01CB01BC01CD012DEC3CEC06
:101AD0004CE45DE30E941B1718164CF080E090E088
:101AE000A0E0B0E08BA79CA7ADA7BEA70CC08091DB
:101AF000C8029091C902A091CA02B091CB028BA7F3
:101B00009CA7ADA7BEA78BA59CA5ADA5BEA58FA77D
:101B100098ABA9ABBAAB8FA598A9A9A9BAA980938C
:101B2000C8029093C902A093CA02B093CB028091DD
:101B3000C4029091C502AA2797FDA095BA2FBC01B7
:101B4000CD010E944B17DC01CB012091CC023091DA
:101B5000CD024091CE025091CF02BC01CD010E9436
:101B6000E514DC01CB01BC01CD0120E030E040E810
:101B70005FE30E948B1618168CF48091C40290913A
:101B8000C502AA2797FDA095BA2FBC01CD010E94DE
:101B90004B176FA378A789A79AA70CC08091CC0296
:101BA0009091CD02A091CE02B091CF028FA398A7C1
:101BB000A9A7BAA78FA198A5A9A5BAA58093CC0279
:101BC0009093CD02A093CE02B093CF028091C40235
:101BD0009091C502AA2797FDA095BA2FBC01CD010F
:101BE0000E944B17DC01CB012091CC023091CD0239
:101BF0004091CE025091CF02BC01CD010E94E5146C
:101C0000DC01CB017C018D018091C6029091C7025D
:101C1000AA2797FDA095BA2FBC01CD010E944B17B2
:101C2000DC01CB012091C8023091C9024091CA0267
:101C30005091CB02BC01CD010E94E514DC01CB0127
:101C40009C01AD0160E070E080E89FE30E94871492
:101C5000DC01CB019C01AD01C801B7010E948B16CC
:101C600018160CF041C08091C4029091C502AA27B9
:101C700097FDA095BA2FBC01CD010E944B177B01A7
:101C80008C018091C6029091C702AA2797FDA0956A
:101C9000BA2FBC01CD010E944B17DC01CB01209172
:101CA000C8023091C9024091CA025091CB02BC01D6
:101CB000CD010E94E514DC01CB019C01AD0160E087
:101CC00070E080E89FE30E948714DC01CB019C0157
:101CD000AD01C801B7010E94E514DC01CB018BA363
:101CE0009CA3ADA3BEA30CC08091CC029091CD0269
:101CF000A091CE02B091CF028BA39CA3ADA3BEA3B3
:101D00008BA19CA1ADA1BEA18093CC029093CD02EA
:101D1000A093CE02B093CF028091CC029091CD02DD
:101D2000A091CE02B091CF022091C8023091C90299
:101D30004091CA025091CB02BC01CD010E94B8145F
:101D4000DC01CB01A796EEADFFADA7978083918311
:101D5000A283B3838091CC029091CD02A091CE0258
:101D6000B091CF022091C8023091C9024091CA02BD
:101D70005091CB02BC01CD010E948714DC01CB0144
:101D8000E989FA8980839183A283B383A796EEAD14
:101D9000FFADA79780819181A281B381BC01CD0164
:101DA00024EA30E74DE75FE30E948B1618164CF4E7
:101DB00084EA90E7ADE7BFE38F8F98A3A9A3BAA306
:101DC0002FC0A796EEADFFADA79780819181A2812C
:101DD000B381BC01CD0124EA30E74DE75FEB0E94FF
:101DE000EB1688234CF484EA90E7ADE7BFEB8B8FCA
:101DF0009C8FAD8FBE8F0CC0A796EEADFFADA797A1
:101E000080819181A281B3818B8F9C8FAD8FBE8F9A
:101E10008B8D9C8DAD8DBE8D8F8F98A3A9A3BAA3FA
:101E2000A796EEADFFADA7978F8D98A1A9A1BAA1F6
:101E300080839183A283B383E989FA898081918128
:101E4000A281B381BC01CD0124EA30E74DE75FE315
:101E50000E948B1618164CF484EA90E7ADE7BFE3B6
:101E60008F8B988FA98FBA8F2BC0E989FA898081CF
:101E70009181A281B381BC01CD0124EA30E74DE715
:101E80005FEB0E94EB1688234CF484EA90E7ADE701
:101E9000BFEB8B8B9C8BAD8BBE8B0AC0E989FA891B
:101EA00080819181A281B3818B8B9C8BAD8BBE8B0A
:101EB0008B899C89AD89BE898F8B988FA98FBA8FAA
:101EC000E989FA898F89988DA98DBA8D808391834C
:101ED000A283B383CA5ADF4F0FB6F894DEBF0FBE9A
:101EE000CDBFCF91DF911F910F91FF90EF90DF90C9
:101EF000CF90BF90AF909F908F900895DF93CF9336
:101F0000CDB7DEB7EFE4F0E082EA8083EEE4F0E004
:101F10008AE18083E6E4F0E080E197E291838083C8
:101F2000A9E5B0E0E9E5F0E08081837C84608C93F2
:101F3000CF91DF9108950F931F93DF93CF9300D03C
:101F400000D0CDB7DEB769837A838B839C830AE4A4
:101F500010E069817A818B819C8120E030E44CE142
:101F600056E40E94E514DC01CB01BC01CD010E94C6
:101F70000F13DC01CB01F8019183808369817A81A1
:101F80008B819C8120E030E040E050E00E94EB1625
:101F900088234CF4A2E3B0E0E2E3F0E08081837FA9
:101FA00088608C9308C0A2E3B0E0E2E3F0E08081B7
:101FB000837F84608C930F900F900F900F90CF9140
:101FC000DF911F910F9108950F931F93DF93CF938C
:101FD00000D000D0CDB7DEB769837A838B839C8332
:101FE00008E410E069817A818B819C8120E030E4F3
:101FF0004CE156E40E94E514DC01CB01BC01CD01AB
:102000000E940F13DC01CB01F80191838083698169
:102010007A818B819C8120E030E040E050E00E949A
:10202000EB1688234CF4A2E3B0E0E2E3F0E0808119
:102030008F7380688C9308C0A2E3B0E0E2E3F0E025
:1020400080818F7380648C930F900F900F900F900E
:10205000CF91DF911F910F9108951F920F920FB6AC
:102060000F9211248F93DF93CF93CDB7DEB781E02A
:102070008093E402CF91DF918F910F900FBE0F906C
:102080001F901895DF93CF930F92CDB7DEB7F894DA
:102090008091E40289831092E402789489810F9000
:1020A000CF91DF910895DF93CF9300D0CDB7DEB706
:1020B0002091810030918200809183009091840072
:1020C0002817390738F480918100909182009A8313
:1020D000898306C080918300909184009A838983CC
:1020E00089819A818233910568F480E090E0A0E0D4
:1020F000B0E08093F5029093F602A093F702B093BC
:10210000F80227C089819A81CC01A0E0B0E0BC012F
:10211000CD010E94FD17DC01CB01BC01CD0120E007
:1021200030E048E452E40E948714DC01CB01BC019A
:10213000CD0120E030E048E452E40E94DF15DC01EC
:10214000CB018093F5029093F602A093F702B0932F
:10215000F8020F900F90CF91DF910895DF93CF9306
:10216000CDB7DEB780EE61E04CE020E00E9465066E
:1021700080EE62E044E620E00E94650682EE61E0C7
:102180004CE020E00E94650682EE62E044E620E03A
:102190000E9465061092E90280EE60E041E520E0D1
:1021A0000E946506CF91DF910895DF93CF9300D011
:1021B00000D00F92CDB7DEB78D838D818823C1F11A
:1021C0008091E9028823C9F480EE62E040E021E0DA
:1021D0000E94650680EE63E040E021E00E94650613
:1021E00081E08093E90282EE60E041E520E00E9418
:1021F000650683E00E94AB121BC08091E90281302A
:10220000B9F482EE62E040E021E00E94650682EED1
:1022100063E040E021E00E9465061092E90280EE52
:1022200060E041E520E00E94650685E00E94AB1277
:102230000E94BE06DC01CB0189839A83AB83BC83F9
:1022400089818F3F09F46CC08A818230B9F4898119
:10225000803E51F48C81882F90E0982F88279093AE
:10226000E6028093E5025CC08C81882F90E0982F75
:1022700088279093E8028093E70252C08981803ECC
:1022800039F58C81282F30E08091E5029091E602AB
:10229000822B932B9093E6028093E5028091E502D6
:1022A0009091E6029093820080938100809181005A
:1022B000909182002FE0813A920728F484E060E058
:1022C0000E94C8122BC084E061E00E94C81226C0A0
:1022D0008C81282F30E08091E7029091E802822BD8
:1022E000932B9093E8028093E7028091E70290910C
:1022F000E802909384008093830080918300909102
:1023000084002FE0813A920728F482E060E00E9486
:10231000C81204C082E061E00E94C8120E945310FB
:102320000F900F900F900F900F90CF91DF91089525
:102330001F920F920FB60F9211242F933F934F933A
:102340005F936F937F938F939F93AF93BF93EF931D
:10235000FF93DF93CF9300D00F92CDB7DEB7ECE2BF
:10236000F0E0208129830E940713ECE2F0E039813C
:1023700030838091EB02282F30E03B832A838A81CF
:102380009B818130910581F02A813B81223031058A
:1023900091F08A819B810097B9F49981913FB1F4C2
:1023A00081E08093EB0212C082E08093EB022981EE
:1023B000209385000BC01092EB0239813093EA0222
:1023C00081E00E94AB1202C01092EB020F900F90BE
:1023D0000F90CF91DF91FF91EF91BF91AF919F91BE
:1023E0008F917F916F915F914F913F912F910F90BE
:1023F0000FBE0F901F901895DF93CF9300D00F92D0
:10240000CDB7DEB79A8389836B830F900F900F90BF
:10241000CF91DF910895DF93CF93CDB7DEB7E0E49E
:10242000F0E086E88083EAE2F0E088E98083E0E497
:10243000F0E01082E9E2F0E087E68083CF91DF915F
:102440000895DF93CF93CDB7DEB780918500CF910C
:10245000DF910895DF93CF93CDB7DEB78091EA0285
:10246000CF91DF910895DF93CF9300D000D00F92EA
:10247000CDB7DEB78D838D81882F90E0A0E0B0E0EE
:10248000BC01CD010E94FD179B01AC01CA01B9013D
:102490000E94B814DC01CB01BC01CD0128ED3FE066
:1024A00049E450E40E94E514DC01CB01BC01CD01FC
:1024B00020E030E044E353E40E94DF15DC01CB016F
:1024C00089839A83AB83BC8389819A81AB81BC81E8
:1024D000BC01CD010F900F900F900F900F90CF91F6
:1024E000DF910895DF93CF9300D000D00F92CDB746
:1024F000DEB78D838D81882F90E0A0E0B0E0BC0135
:10250000CD010E94FD17DC01CB01BC01CD0120E013
:1025100030E048EC52E40E948714DC01CB01BC019E
:10252000CD0120E030E048EC52E40E94DF15DC01F0
:10253000CB0189839A83AB83BC8389819A81AB81E8
:10254000BC81BC01CD010F900F900F900F900F90A8
:10255000CF91DF910895DF93CF930F92CDB7DEB780
:102560008983A8E3B0E0E8E3F0E08081482F898127
:10257000282F30E081E090E0022E02C0880F991FE2
:102580000A94E2F784278C930F90CF91DF910895FE
:10259000DF93CF9300D0CDB7DEB789836A83A8E3FA
:1025A000B0E08A81282F30E08981882F90E0A9014E
:1025B00002C0440F551F8A95E2F7CA01482F89814E
:1025C000282F30E081E090E0022E02C0880F991F92
:1025D0000A94E2F7982F9095E8E3F0E08081892350
:1025E000842B8C930F900F90CF91DF910895DF9300
:1025F000CF93CDB7DEB788E190E02BE00FB6F8942B
:10260000A89581BD0FBE21BDCF91DF910895DF93C5
:10261000CF93CDB7DEB7A895CF91DF910895EF9214
:10262000FF920F931F937B018C0120E030E040E08C
:102630005FE40E94BB1688238CF0C801B70120E03C
:1026400030E040E05FE40E9487140E94A9179B01DC
:10265000AC01205030404040504806C0C801B7018E
:102660000E94A9179B01AC01B901CA011F910F91EA
:10267000FF90EF900895A0E0B0E0E1E4F3E10C9466
:10268000CF1ADC012B01FA019C91923008F439C178
:10269000EB018881823008F433C1943069F48430CE
:1026A00009F02FC111969C9111978981981709F40F
:1026B00028C1A6E8B0E025C1843009F421C18230E8
:1026C000A9F4923009F01DC19A01AD0188E0EA0138
:1026D0000990AE01E90109929E018150C1F7E20122
:1026E000898111969C918923818308C1923009F4D4
:1026F00007C112962D903C901397EB018A819B8124
:102700001496AD90BD90CD90DC901797EC80FD8035
:102710000E811F819101281B390BB90137FF04C0BD
:1027200066277727621B730B603271050CF061C05E
:10273000121613066CF537014801062E04C0969454
:102740008794779467940A94D2F721E030E040E0D0
:1027500050E004C0220F331F441F551F6A95D2F763
:1027600021503040404050402E213F2140235123F2
:10277000211531054105510521F021E030E040E00F
:1027800050E079018A01E628F728082919293CC078
:10279000232BD1F1260E371E35014601062E04C02B
:1027A00096948794779467940A94D2F721E030E066
:1027B00040E050E004C0220F331F441F551F6A95AC
:1027C000D2F721503040404050402A213B214C213B
:1027D0005D21211531054105510521F021E030E051
:1027E00040E050E059016A01A628B728C828D92836
:1027F0000BC0821593052CF01C01AA24BB24650193
:1028000003C0EE24FF24870111969C91D2011196FA
:102810008C91981709F445C0992339F0A8019701C4
:102820002A193B094C095D0906C0A60195012E191C
:102830003F09400B510B57FD08C0118233822282A1
:1028400024833583468357831DC081E0818333828F
:10285000228288279927DC01821B930BA40BB50BDE
:1028600084839583A683B7830DC0220F331F441F33
:10287000551F248335834683578382819381019733
:10288000938382832481358146815781DA01C9018E
:102890000197A109B1098F5F9F4FAF4FBF4328F345
:1028A0000BC0918333822282EA0CFB1C0C1D1D1D80
:1028B000E482F5820683178383E080832481358157
:1028C0004681578157FF1AC0C901AA2797FDA095D5
:1028D000BA2F81709070A070B0705695479537955B
:1028E0002795822B932BA42BB52B84839583A683CA
:1028F000B78382819381019693838283DF0101C034
:10290000D201CD01CDB7DEB7E2E10C94EB1AA0E223
:10291000B0E0EDE8F4E10C94DB1A69837A838B83F1
:102920009C832D833E834F835887E9E0EE2EF12C64
:10293000EC0EFD1ECE010196B7010E949A198E0180
:102940000F5E1F4FCE010596B8010E949A198A8921
:1029500091E089278A8BC701B801AE01475E5F4FBE
:102960000E943B130E94C518A096E6E00C94F71A4B
:10297000A0E2B0E0EEEBF4E10C94DB1A69837A8319
:102980008B839C832D833E834F835887F9E0EF2E02
:10299000F12CEC0EFD1ECE010196B7010E949A1992
:1029A0008E010F5E1F4FCE010596B8010E949A1945
:1029B000C701B801AE01475E5F4F0E943B130E9402
:1029C000C518A096E6E00C94F71AA0E2B0E0EBEE92
:1029D000F4E10C94CF1A69837A838B839C832D83D3
:1029E0003E834F835887CE010196BE01675F7F4FBC
:1029F0000E949A19CE010596BE016F5E7F4F0E941C
:102A00009A199985923088F089898230C8F094307B
:102A100019F4823051F404C0843029F4923081F4E6
:102A200086E890E0C6C0923049F420E09A858A8911
:102A3000981321E02A87CE010996BBC0823049F461
:102A400020E09A858A89981321E02A8BCE0141964D
:102A5000B0C02D843E844F8458886D887E888F88CE
:102A6000988CEE24FF248701AA24BB24650140E052
:102A700050E060E070E0E0E0F0E0C1018170907053
:102A8000892BE9F0E60CF71C081D191D9A01AB0112
:102A90002A0D3B1D4C1D5D1D80E090E0A0E0B0E0E4
:102AA000E614F7040805190520F481E090E0A0E0A1
:102AB000B0E0BA01A901480F591F6A1F7B1FAA0C79
:102AC000BB1CCC1CDD1C97FE08C081E090E0A0E0A0
:102AD000B0E0A82AB92ACA2ADB2A3196E032F105E9
:102AE00049F0660C771C881C991C569447943794BF
:102AF0002794C3CFFA85EA892B893C898B859C85ED
:102B0000280F391F2E5F3F4F17C0CA018170907088
:102B1000892B61F016950795F794E79480E090E093
:102B2000A0E0B0E8E82AF92A0A2B1B2B76956795D6
:102B3000579547952F5F3F4F77FDE7CF0CC0440F68
:102B4000551F661F771F17FD4160EE0CFF1C001F0D
:102B5000111F21503040403090E0590790E0690744
:102B600090E4790760F32B8F3C8FDB01CA018F77EC
:102B70009070A070B07080349105A105B10561F42A
:102B800047FD0AC0E114F1040105110529F0405C7C
:102B90005F4F6F4F7F4F40781A8EFE1711F081E024
:102BA0008A8F4D8F5E8F6F8F78A383E0898FCE01E0
:102BB00049960E94C518A096E2E10C94EB1AA8E190
:102BC000B0E0E5EEF5E10C94D71A69837A838B8344
:102BD0009C832D833E834F835887B9E0EB2EF12CE5
:102BE000EC0EFD1ECE010196B7010E949A198E01CE
:102BF0000F5E1F4FCE010596B8010E949A192985D4
:102C0000223008F47EC03989323010F4B8017CC01B
:102C10008A859A8989278A87243011F0223031F4F5
:102C2000231709F06EC066E870E06EC0343039F4E6
:102C30001D861E861F86188A1C861B8604C032309D
:102C400021F484E08987B7015FC02B853C858B899F
:102C50009C89281B390B3C872B87ED84FE840F85CC
:102C60001889AD88BE88CF88D88CEA14FB040C057F
:102C70001D0540F4EE0CFF1C001F111F21503040B9
:102C80003C872B8720E030E040E050E080E090E09F
:102C9000A0E0B0E460E070E0EA14FB040C051D0560
:102CA00040F0282B392B4A2B5B2BEA18FB080C0928
:102CB0001D09B695A79597958795EE0CFF1C001FEB
:102CC000111F6F5F7F4F6F31710531F7DA01C90155
:102CD0008F779070A070B07080349105A105B10518
:102CE00061F427FD0AC0E114F1040105110529F082
:102CF000205C3F4F4F4F5F4F20782D873E874F8797
:102D0000588BBE01675F7F4FCB010E94C518689644
:102D1000EAE00C94F31AA8E1B0E0E1E9F6E10C94E2
:102D2000DB1A69837A838B839C832D833E834F8355
:102D3000588789E0E82EF12CEC0EFD1ECE0101969D
:102D4000B7010E949A198E010F5E1F4FCE010596A2
:102D5000B8010E949A198985823040F089898230B1
:102D600028F0C701B8010E94121A01C08FEF6896BF
:102D7000E6E00C94F71AA8E1B0E0E1ECF6E10C947F
:102D8000DB1A69837A838B839C832D833E834F83F5
:102D9000588789E0E82EF12CEC0EFD1ECE0101963D
:102DA000B7010E949A198E010F5E1F4FCE01059642
:102DB000B8010E949A198985823040F08989823051
:102DC00028F0C701B8010E94121A01C08FEF68965F
:102DD000E6E00C94F71AA8E1B0E0E1EFF6E10C941C
:102DE000DB1A69837A838B839C832D833E834F8395
:102DF000588789E0E82EF12CEC0EFD1ECE010196DD
:102E0000B7010E949A198E010F5E1F4FCE010596E1
:102E1000B8010E949A198985823040F089898230F0
:102E200028F0C701B8010E94121A01C081E068961B
:102E3000E6E00C94F71AA8E1B0E0E1E2F7E10C94C7
:102E4000DB1A69837A838B839C832D833E834F8334
:102E5000588789E0E82EF12CEC0EFD1ECE0101967C
:102E6000B7010E949A198E010F5E1F4FCE01059681
:102E7000B8010E949A198985823040F08989823090
:102E800028F0C701B8010E94121A01C081E06896BB
:102E9000E6E00C94F71AA8E0B0E0E1E5F7E10C9465
:102EA000D81A9B01AC0183E08983DA01C901882724
:102EB000B7FD83959927AA27BB27B82E2115310581
:102EC0004105510519F482E089833AC08823A9F0AD
:102ED000203080E0380780E0480780E8580729F470
:102EE00060E070E080E09FEC30C0EE24FF248701BA
:102EF000E21AF30A040B150B02C079018A018EE174
:102F0000C82ED12CDC82CB82ED82FE820F83188703
:102F1000C801B7010E94761801971816190684F4A3
:102F2000082E04C0EE0CFF1C001F111F0A94D2F7DC
:102F3000ED82FE820F831887C81AD90ADC82CB8201
:102F4000BA82CE0101960E94C5182896E9E00C9439
:102F5000F41AACE0B0E0EFEAF7E10C94DF1A698311
:102F60007A838B839C83CE010196BE016B5F7F4F7A
:102F70000E949A198D81823061F1823050F1843043
:102F800021F48E81882351F12EC02F81388537FDA1
:102F900020C06E812F3131051CF06623F9F023C06B
:102FA0008EE190E0821B930B29853A854B855C85E9
:102FB00004C056954795379527958A95D2F766238D
:102FC000B1F050954095309521953F4F4F4F5F4F51
:102FD0000EC020E030E040E050E009C02FEF3FEFAE
:102FE0004FEF5FE704C020E030E040E050E8B90177
:102FF000CA012C96E2E00C94FB1AA8E0B0E0E3E0F2
:10300000F8E10C94D71A7B018C01611571058105DB
:10301000910519F482E0898360C083E089838EE1A1
:10302000C82ED12CDC82CB82ED82FE820F831887E2
:10303000C801B7010E947618FC013197F7FF3BC029
:10304000222733272E1B3F0B57016801022E04C095
:10305000D694C794B794A7940A94D2F740E050E06E
:1030600060E070E081E090E0A0E0B0E004C0880F94
:10307000991FAA1FBB1F2A95D2F70197A109B10971
:103080008E219F21A023B1230097A105B10521F036
:1030900041E050E060E070E04A295B296C297D291D
:1030A0004D835E836F8378878EE190E08E1B9F0B4C
:1030B0009C838B8312C0309781F00E2E04C0EE0CDF
:1030C000FF1C001F111F0A94D2F7ED82FE820F83AE
:1030D0001887CE1ADF0ADC82CB821A82CE010196D3
:1030E0000E94C5182896EAE00C94F31AEF92FF921A
:1030F0000F931F937B018C0180E0E81680E0F806B7
:1031000081E0080780E0180788F48FEFE816F104E3
:103110000105110531F028F088E090E0A0E0B0E072
:1031200017C080E090E0A0E0B0E012C080E0E816B8
:1031300080E0F80680E0080781E0180728F088E1C1
:1031400090E0A0E0B0E004C080E190E0A0E0B0E05A
:1031500020E230E040E050E0281B390B4A0B5B0BCB
:1031600004C016950795F794E7948A95D2F7F7016E
:10317000E257FF4F8081281B310941095109C901DC
:103180001F910F91FF90EF900895DF92EF92FF92C1
:103190000F931F93FC01E480F58006811781D18095
:1031A0008081823048F480E090E0A0E1B0E0E82A3D
:1031B000F92A0A2B1B2BA5C0843009F49FC082304A
:1031C00021F4EE24FF24870105C0E114F104010578
:1031D000110519F4E0E0F0E096C0628173819FEF81
:1031E000623879070CF05BC022E83FEF261B370BF3
:1031F0002A3131052CF020E030E040E050E02AC0D8
:10320000B801A701022E04C076956795579547959A
:103210000A94D2F781E090E0A0E0B0E004C0880F0B
:10322000991FAA1FBB1F2A95D2F70197A109B109BF
:103230008E219F21A023B1230097A105B10521F084
:1032400081E090E0A0E0B0E09A01AB01282B392B9F
:103250004A2B5B2BDA01C9018F779070A070B07098
:1032600080349105A105B10539F427FF09C0205C20
:103270003F4F4F4F5F4F04C0215C3F4F4F4F5F4F59
:10328000E0E0F0E02030A0E03A07A0E04A07A0E448
:103290005A0710F0E1E0F0E079018A0127C06038B8
:1032A000710564F5FB01E158FF4FD801C7018F7725
:1032B0009070A070B07080349105A105B10539F40B
:1032C000E7FE0DC080E490E0A0E0B0E004C08FE332
:1032D00090E0A0E0B0E0E80EF91E0A1F1B1F17FFE8
:1032E00005C016950795F794E794319687E01695F3
:1032F0000795F794E7948A95D1F705C0EE24FF244B
:103300008701EFEFF0E06E2F679566276795902FA6
:103310009F77D794DD24D7948E2F8695492F462BFF
:10332000582F5D29B701CA011F910F91FF90EF90AF
:10333000DF900895FC01DB01408151812281622FE1
:103340006F7770E0221F2227221F9381892F880F19
:10335000822B282F30E0991F9927991F11969C9353
:10336000119721153105A9F5411551056105710523
:1033700011F482E037C082E89FEF13969C938E93FE
:1033800012979A01AB0167E0220F331F441F551FAC
:103390006A95D1F783E08C930DC0220F331F441F31
:1033A000551F12968D919C911397019713969C939C
:1033B0008E931297203080E0380780E0480780E441
:1033C000580758F314962D933D934D935C9317979C
:1033D00008952F3F310579F44115510561057105B7
:1033E00019F484E08C93089564FF03C081E08C930A
:1033F00012C01C9210C02F57304013963C932E934E
:10340000129783E08C9387E0440F551F661F771F48
:103410008A95D1F7706414964D935D936D937C9368
:10342000179708951F93DC01FB019C91923008F4DB
:1034300047C08081823008F443C0943051F4119623
:103440001C91843099F58181682F70E0611B7109AE
:103450003FC0843021F0923031F48230B9F1818163
:10346000882389F12DC011961C9111978230F1F0BB
:1034700081811817D9F412962D913C91139782816E
:1034800093818217930794F028173907BCF014969C
:103490008D919D910D90BC91A02D24813581468107
:1034A0005781281739074A075B0718F4112341F0A1
:1034B0000AC082179307A407B50740F4112319F037
:1034C00061E070E005C06FEF7FEF02C060E070E088
:1034D000CB011F91089597FB092E07260AD077FD8F
:1034E00004D027D006D000201AF4709561957F4F44
:1034F0000895F6F7909581959F4F089597FB092EB3
:1035000005260ED057FD04D028D00AD0001C38F470
:1035100050954095309521953F4F4F4F5F4F0895FF
:10352000F6F790958095709561957F4F8F4F9F4FDF
:103530000895AA1BBB1B51E107C0AA1FBB1FA617FA
:10354000B70710F0A61BB70B881F991F5A95A9F74C
:1035500080959095BC01CD010895A1E21A2EAA1B79
:10356000BB1BFD010DC0AA1FBB1FEE1FFF1FA21733
:10357000B307E407F50720F0A21BB30BE40BF50B30
:10358000661F771F881F991F1A9469F760957095B9
:10359000809590959B01AC01BD01CF0108952F92BC
:1035A0003F924F925F926F927F928F929F92AF92D3
:1035B000BF92CF92DF92EF92FF920F931F93CF9320
:1035C000DF93CDB7DEB7CA1BDB0B0FB6F894DEBFB7
:1035D0000FBECDBF09942A88398848885F846E84DD
:1035E0007D848C849B84AA84B984C884DF80EE8027
:1035F000FD800C811B81AA81B981CE0FD11D0FB630
:10360000F894DEBF0FBECDBFED010895F894FFCF53
:1036100053657269616C20446174612066726F6DDC
:1036200020415652207265636569766564232323C1
:10363000000F270F276400000000000000000001B9
:103640000202030303030404040404040404050540
:103650000505050505050505050505050505060618
:1036600006060606060606060606060606060606FA
:1036700006060606060606060606060606060707E8
:1036800007070707070707070707070707070707CA
:1036900007070707070707070707070707070707BA
:1036A00007070707070707070707070707070707AA
:1036B0000707070707070707070707070707080898
:1036C000080808080808080808080808080808087A
:1036D000080808080808080808080808080808086A
:1036E000080808080808080808080808080808085A
:1036F000080808080808080808080808080808084A
:103700000808080808080808080808080808080839
:103710000808080808080808080808080808080829
:103720000808080808080808080808080808080819
:0E37300008080808080808080808080808081B
:00000001FF
